:060000000A128A11002A19
:10000800A000030EA1000B1810200B191820210EB8
:100018008300A00E200E090003138312061C850A14
:10002800861C85030B10080003138312F03081002F
:060038000B114522080037
:100200008A010A148207C034F934A434B034993412
:0C02100092348234F83480349034883406
:10040000A6010E221B222C2233223F220313831229
:10041000A701A801A9015D227822082A03138316E7
:100420008112811101118114011003138312F03024
:1004300081000B110800031783168801890103133B
:10044000831685018701880106148614031383121D
:100450008501870188010800031383160F138F1687
:100460000F120F1408000313831696141614151494
:10047000951481130313831206080B1008008B17C1
:100480008B150B108B160B1108008801A218572A28
:100490002218522A4C2A0800230887000814A210A8
:1004A00022140800240887008814A21408002508D4
:1004B000870008152210A21008000508A600643065
:1004C000A602A90A03185F2AA9036430A6070A3006
:1004D000A602A80A0318672AA8030A30A607013053
:1004E000A602A70A03186F2AA7030130A60708006F
:1004F00027080021A30028080021A40029080021C2
:04050000A50008004A
:04400E00D420FF3F7C
:00000001FF
